{
  "address": "0x5FC8d32690cc91D4c39d9d3abcBD16989F875707",
  "abi": [
    {
      "inputs": [
        {
          "internalType": "address",
          "name": "vrfCoordinatorV2",
          "type": "address"
        },
        {
          "internalType": "uint64",
          "name": "subscriptionId",
          "type": "uint64"
        },
        {
          "internalType": "bytes32",
          "name": "gasLane",
          "type": "bytes32"
        },
        {
          "internalType": "uint256",
          "name": "mintFee",
          "type": "uint256"
        },
        {
          "internalType": "uint32",
          "name": "callbackGasLimit",
          "type": "uint32"
        },
        {
          "internalType": "string[3]",
          "name": "animalCultistTokenUris",
          "type": "string[3]"
        }
      ],
      "stateMutability": "nonpayable",
      "type": "constructor"
    },
    {
      "inputs": [],
      "name": "AnimalCultistNFT__AlreadyInitialized",
      "type": "error"
    },
    {
      "inputs": [
        {
          "internalType": "uint256",
          "name": "sent",
          "type": "uint256"
        },
        {
          "internalType": "uint256",
          "name": "required",
          "type": "uint256"
        }
      ],
      "name": "AnimalCultistNFT__NeedMoreETHSent",
      "type": "error"
    },
    {
      "inputs": [],
      "name": "AnimalCultistNFT__RangeOutOfBounds",
      "type": "error"
    },
    {
      "inputs": [],
      "name": "AnimalCultistNFT__TransferFailed",
      "type": "error"
    },
    {
      "inputs": [
        {
          "internalType": "address",
          "name": "have",
          "type": "address"
        },
        {
          "internalType": "address",
          "name": "want",
          "type": "address"
        }
      ],
      "name": "OnlyCoordinatorCanFulfill",
      "type": "error"
    },
    {
      "anonymous": false,
      "inputs": [
        {
          "indexed": true,
          "internalType": "address",
          "name": "owner",
          "type": "address"
        },
        {
          "indexed": true,
          "internalType": "address",
          "name": "approved",
          "type": "address"
        },
        {
          "indexed": true,
          "internalType": "uint256",
          "name": "tokenId",
          "type": "uint256"
        }
      ],
      "name": "Approval",
      "type": "event"
    },
    {
      "anonymous": false,
      "inputs": [
        {
          "indexed": true,
          "internalType": "address",
          "name": "owner",
          "type": "address"
        },
        {
          "indexed": true,
          "internalType": "address",
          "name": "operator",
          "type": "address"
        },
        {
          "indexed": false,
          "internalType": "bool",
          "name": "approved",
          "type": "bool"
        }
      ],
      "name": "ApprovalForAll",
      "type": "event"
    },
    {
      "anonymous": false,
      "inputs": [
        {
          "indexed": false,
          "internalType": "enum AnimalCultistNFT.AnimalCultist",
          "name": "breed",
          "type": "uint8"
        },
        {
          "indexed": false,
          "internalType": "address",
          "name": "minter",
          "type": "address"
        }
      ],
      "name": "NftMinted",
      "type": "event"
    },
    {
      "anonymous": false,
      "inputs": [
        {
          "indexed": true,
          "internalType": "uint256",
          "name": "requestId",
          "type": "uint256"
        },
        {
          "indexed": false,
          "internalType": "address",
          "name": "requester",
          "type": "address"
        }
      ],
      "name": "NftRequested",
      "type": "event"
    },
    {
      "anonymous": false,
      "inputs": [
        {
          "indexed": true,
          "internalType": "address",
          "name": "previousOwner",
          "type": "address"
        },
        {
          "indexed": true,
          "internalType": "address",
          "name": "newOwner",
          "type": "address"
        }
      ],
      "name": "OwnershipTransferred",
      "type": "event"
    },
    {
      "anonymous": false,
      "inputs": [
        {
          "indexed": true,
          "internalType": "address",
          "name": "from",
          "type": "address"
        },
        {
          "indexed": true,
          "internalType": "address",
          "name": "to",
          "type": "address"
        },
        {
          "indexed": true,
          "internalType": "uint256",
          "name": "tokenId",
          "type": "uint256"
        }
      ],
      "name": "Transfer",
      "type": "event"
    },
    {
      "inputs": [
        {
          "internalType": "address",
          "name": "to",
          "type": "address"
        },
        {
          "internalType": "uint256",
          "name": "tokenId",
          "type": "uint256"
        }
      ],
      "name": "approve",
      "outputs": [],
      "stateMutability": "nonpayable",
      "type": "function"
    },
    {
      "inputs": [
        {
          "internalType": "address",
          "name": "owner",
          "type": "address"
        }
      ],
      "name": "balanceOf",
      "outputs": [
        {
          "internalType": "uint256",
          "name": "",
          "type": "uint256"
        }
      ],
      "stateMutability": "view",
      "type": "function"
    },
    {
      "inputs": [
        {
          "internalType": "uint256",
          "name": "index",
          "type": "uint256"
        }
      ],
      "name": "getAnimalCultistTokenUri",
      "outputs": [
        {
          "internalType": "string",
          "name": "",
          "type": "string"
        }
      ],
      "stateMutability": "view",
      "type": "function"
    },
    {
      "inputs": [
        {
          "internalType": "uint256",
          "name": "tokenId",
          "type": "uint256"
        }
      ],
      "name": "getApproved",
      "outputs": [
        {
          "internalType": "address",
          "name": "",
          "type": "address"
        }
      ],
      "stateMutability": "view",
      "type": "function"
    },
    {
      "inputs": [],
      "name": "getChanceArray",
      "outputs": [
        {
          "internalType": "uint256[3]",
          "name": "",
          "type": "uint256[3]"
        }
      ],
      "stateMutability": "pure",
      "type": "function"
    },
    {
      "inputs": [
        {
          "internalType": "uint256",
          "name": "moddedRng",
          "type": "uint256"
        }
      ],
      "name": "getCultistFromModdedRng",
      "outputs": [
        {
          "internalType": "enum AnimalCultistNFT.AnimalCultist",
          "name": "",
          "type": "uint8"
        }
      ],
      "stateMutability": "pure",
      "type": "function"
    },
    {
      "inputs": [],
      "name": "getInitialized",
      "outputs": [
        {
          "internalType": "bool",
          "name": "",
          "type": "bool"
        }
      ],
      "stateMutability": "view",
      "type": "function"
    },
    {
      "inputs": [],
      "name": "getMintFee",
      "outputs": [
        {
          "internalType": "uint256",
          "name": "",
          "type": "uint256"
        }
      ],
      "stateMutability": "view",
      "type": "function"
    },
    {
      "inputs": [],
      "name": "getTokenCounter",
      "outputs": [
        {
          "internalType": "uint256",
          "name": "",
          "type": "uint256"
        }
      ],
      "stateMutability": "view",
      "type": "function"
    },
    {
      "inputs": [
        {
          "internalType": "address",
          "name": "owner",
          "type": "address"
        },
        {
          "internalType": "address",
          "name": "operator",
          "type": "address"
        }
      ],
      "name": "isApprovedForAll",
      "outputs": [
        {
          "internalType": "bool",
          "name": "",
          "type": "bool"
        }
      ],
      "stateMutability": "view",
      "type": "function"
    },
    {
      "inputs": [],
      "name": "name",
      "outputs": [
        {
          "internalType": "string",
          "name": "",
          "type": "string"
        }
      ],
      "stateMutability": "view",
      "type": "function"
    },
    {
      "inputs": [],
      "name": "owner",
      "outputs": [
        {
          "internalType": "address",
          "name": "",
          "type": "address"
        }
      ],
      "stateMutability": "view",
      "type": "function"
    },
    {
      "inputs": [
        {
          "internalType": "uint256",
          "name": "tokenId",
          "type": "uint256"
        }
      ],
      "name": "ownerOf",
      "outputs": [
        {
          "internalType": "address",
          "name": "",
          "type": "address"
        }
      ],
      "stateMutability": "view",
      "type": "function"
    },
    {
      "inputs": [
        {
          "internalType": "uint256",
          "name": "requestId",
          "type": "uint256"
        },
        {
          "internalType": "uint256[]",
          "name": "randomWords",
          "type": "uint256[]"
        }
      ],
      "name": "rawFulfillRandomWords",
      "outputs": [],
      "stateMutability": "nonpayable",
      "type": "function"
    },
    {
      "inputs": [],
      "name": "renounceOwnership",
      "outputs": [],
      "stateMutability": "nonpayable",
      "type": "function"
    },
    {
      "inputs": [],
      "name": "requestNFT",
      "outputs": [
        {
          "internalType": "uint256",
          "name": "requestId",
          "type": "uint256"
        }
      ],
      "stateMutability": "payable",
      "type": "function"
    },
    {
      "inputs": [
        {
          "internalType": "uint256",
          "name": "",
          "type": "uint256"
        }
      ],
      "name": "s_requestIdToSender",
      "outputs": [
        {
          "internalType": "address",
          "name": "",
          "type": "address"
        }
      ],
      "stateMutability": "view",
      "type": "function"
    },
    {
      "inputs": [
        {
          "internalType": "address",
          "name": "from",
          "type": "address"
        },
        {
          "internalType": "address",
          "name": "to",
          "type": "address"
        },
        {
          "internalType": "uint256",
          "name": "tokenId",
          "type": "uint256"
        }
      ],
      "name": "safeTransferFrom",
      "outputs": [],
      "stateMutability": "nonpayable",
      "type": "function"
    },
    {
      "inputs": [
        {
          "internalType": "address",
          "name": "from",
          "type": "address"
        },
        {
          "internalType": "address",
          "name": "to",
          "type": "address"
        },
        {
          "internalType": "uint256",
          "name": "tokenId",
          "type": "uint256"
        },
        {
          "internalType": "bytes",
          "name": "data",
          "type": "bytes"
        }
      ],
      "name": "safeTransferFrom",
      "outputs": [],
      "stateMutability": "nonpayable",
      "type": "function"
    },
    {
      "inputs": [
        {
          "internalType": "address",
          "name": "operator",
          "type": "address"
        },
        {
          "internalType": "bool",
          "name": "approved",
          "type": "bool"
        }
      ],
      "name": "setApprovalForAll",
      "outputs": [],
      "stateMutability": "nonpayable",
      "type": "function"
    },
    {
      "inputs": [
        {
          "internalType": "bytes4",
          "name": "interfaceId",
          "type": "bytes4"
        }
      ],
      "name": "supportsInterface",
      "outputs": [
        {
          "internalType": "bool",
          "name": "",
          "type": "bool"
        }
      ],
      "stateMutability": "view",
      "type": "function"
    },
    {
      "inputs": [],
      "name": "symbol",
      "outputs": [
        {
          "internalType": "string",
          "name": "",
          "type": "string"
        }
      ],
      "stateMutability": "view",
      "type": "function"
    },
    {
      "inputs": [
        {
          "internalType": "uint256",
          "name": "tokenId",
          "type": "uint256"
        }
      ],
      "name": "tokenURI",
      "outputs": [
        {
          "internalType": "string",
          "name": "",
          "type": "string"
        }
      ],
      "stateMutability": "view",
      "type": "function"
    },
    {
      "inputs": [
        {
          "internalType": "address",
          "name": "from",
          "type": "address"
        },
        {
          "internalType": "address",
          "name": "to",
          "type": "address"
        },
        {
          "internalType": "uint256",
          "name": "tokenId",
          "type": "uint256"
        }
      ],
      "name": "transferFrom",
      "outputs": [],
      "stateMutability": "nonpayable",
      "type": "function"
    },
    {
      "inputs": [
        {
          "internalType": "address",
          "name": "newOwner",
          "type": "address"
        }
      ],
      "name": "transferOwnership",
      "outputs": [],
      "stateMutability": "nonpayable",
      "type": "function"
    },
    {
      "inputs": [],
      "name": "withdraw",
      "outputs": [],
      "stateMutability": "nonpayable",
      "type": "function"
    }
  ],
  "transactionHash": "0xeafa60b36a900d532bf7b25ec4b0ed7bccb2aa361d2ce3caf70a2a9d76190448",
  "args": [
    "0x5FbDB2315678afecb367f032d93F642f64180aa3",
    "1",
    "0xd89b2bf150e3b9e13446986e571fb9cab24b13cea0a43ea20a6049a85cc807cc",
    "10000000000000000",
    "50000000",
    [
      "ipfs://QmQnUkKtphgFVRFyoSvP6o6Q8Aivq1c9eLmETYq6XmNR1t",
      "ipfs://QmYT7DBxTCLdAajTb3jeLb2f5qZwwV89cCAQstDVNW2KN5",
      "ipfs://QmWAVXrpYmWPoCMmNujXvqjSy15Erb951XU4CyxHqAzDyh"
    ]
  ],
  "numDeployments": 1,
  "solcInputHash": "e82cd794f1bb53beb17519e9982e4911",
  "bytecode": "0x6101406040523480156200001257600080fd5b5060405162004773380380620047738339818101604052810190620000389190620007da565b6040518060400160405280600f81526020017f416e696d616c2043756c737469737400000000000000000000000000000000008152506040518060400160405280600281526020017f4143000000000000000000000000000000000000000000000000000000000000815250878073ffffffffffffffffffffffffffffffffffffffff1660808173ffffffffffffffffffffffffffffffffffffffff1681525050508160009081620000eb919062000ad6565b508060019081620000fd919062000ad6565b5050506200012062000114620001c760201b60201c565b620001cf60201b60201c565b8573ffffffffffffffffffffffffffffffffffffffff1660a08173ffffffffffffffffffffffffffffffffffffffff16815250508467ffffffffffffffff1660c08167ffffffffffffffff16815250508360e081815250508261012081815250508163ffffffff166101008163ffffffff168152505080600a906003620001a99291906200030f565b50620001bb816200029560201b60201c565b50505050505062000bbd565b600033905090565b6000600760009054906101000a900473ffffffffffffffffffffffffffffffffffffffff16905081600760006101000a81548173ffffffffffffffffffffffffffffffffffffffff021916908373ffffffffffffffffffffffffffffffffffffffff1602179055508173ffffffffffffffffffffffffffffffffffffffff168173ffffffffffffffffffffffffffffffffffffffff167f8be0079c531659141344cd1fd0a4f28419497f9722a3daafe3b4186f6b6457e060405160405180910390a35050565b600b60009054906101000a900460ff1615620002dd576040517f7e70bb4700000000000000000000000000000000000000000000000000000000815260040160405180910390fd5b80600a906003620002f09291906200030f565b506001600b60006101000a81548160ff02191690831515021790555050565b8280548282559060005260206000209081019282156200035c579160200282015b828111156200035b5782518290816200034a919062000ad6565b509160200191906001019062000330565b5b5090506200036b91906200036f565b5090565b5b8082111562000393576000818162000389919062000397565b5060010162000370565b5090565b508054620003a590620008cf565b6000825580601f10620003b95750620003da565b601f016020900490600052602060002090810190620003d99190620003dd565b5b50565b5b80821115620003f8576000816000905550600101620003de565b5090565b6000604051905090565b600080fd5b600080fd5b600073ffffffffffffffffffffffffffffffffffffffff82169050919050565b60006200043d8262000410565b9050919050565b6200044f8162000430565b81146200045b57600080fd5b50565b6000815190506200046f8162000444565b92915050565b600067ffffffffffffffff82169050919050565b620004948162000475565b8114620004a057600080fd5b50565b600081519050620004b48162000489565b92915050565b6000819050919050565b620004cf81620004ba565b8114620004db57600080fd5b50565b600081519050620004ef81620004c4565b92915050565b6000819050919050565b6200050a81620004f5565b81146200051657600080fd5b50565b6000815190506200052a81620004ff565b92915050565b600063ffffffff82169050919050565b6200054b8162000530565b81146200055757600080fd5b50565b6000815190506200056b8162000540565b92915050565b600080fd5b6000601f19601f8301169050919050565b7f4e487b7100000000000000000000000000000000000000000000000000000000600052604160045260246000fd5b620005c18262000576565b810181811067ffffffffffffffff82111715620005e357620005e262000587565b5b80604052505050565b6000620005f8620003fc565b9050620006068282620005b6565b919050565b600067ffffffffffffffff82111562000629576200062862000587565b5b602082029050919050565b600080fd5b600080fd5b600067ffffffffffffffff8211156200065c576200065b62000587565b5b620006678262000576565b9050602081019050919050565b60005b838110156200069457808201518184015260208101905062000677565b60008484015250505050565b6000620006b7620006b1846200063e565b620005ec565b905082815260208101848484011115620006d657620006d562000639565b5b620006e384828562000674565b509392505050565b600082601f83011262000703576200070262000571565b5b815162000715848260208601620006a0565b91505092915050565b6000620007356200072f846200060b565b620005ec565b9050806020840283018581111562000752576200075162000634565b5b835b81811015620007a057805167ffffffffffffffff8111156200077b576200077a62000571565b5b8086016200078a8982620006eb565b8552602085019450505060208101905062000754565b5050509392505050565b600082601f830112620007c257620007c162000571565b5b6003620007d18482856200071e565b91505092915050565b60008060008060008060c08789031215620007fa57620007f962000406565b5b60006200080a89828a016200045e565b96505060206200081d89828a01620004a3565b95505060406200083089828a01620004de565b94505060606200084389828a0162000519565b93505060806200085689828a016200055a565b92505060a087015167ffffffffffffffff8111156200087a57620008796200040b565b5b6200088889828a01620007aa565b9150509295509295509295565b600081519050919050565b7f4e487b7100000000000000000000000000000000000000000000000000000000600052602260045260246000fd5b60006002820490506001821680620008e857607f821691505b602082108103620008fe57620008fd620008a0565b5b50919050565b60008190508160005260206000209050919050565b60006020601f8301049050919050565b600082821b905092915050565b600060088302620009687fffffffffffffffffffffffffffffffffffffffffffffffffffffffffffffffff8262000929565b62000974868362000929565b95508019841693508086168417925050509392505050565b6000819050919050565b6000620009b7620009b1620009ab84620004f5565b6200098c565b620004f5565b9050919050565b6000819050919050565b620009d38362000996565b620009eb620009e282620009be565b84845462000936565b825550505050565b600090565b62000a02620009f3565b62000a0f818484620009c8565b505050565b5b8181101562000a375762000a2b600082620009f8565b60018101905062000a15565b5050565b601f82111562000a865762000a508162000904565b62000a5b8462000919565b8101602085101562000a6b578190505b62000a8362000a7a8562000919565b83018262000a14565b50505b505050565b600082821c905092915050565b600062000aab6000198460080262000a8b565b1980831691505092915050565b600062000ac6838362000a98565b9150826002028217905092915050565b62000ae18262000895565b67ffffffffffffffff81111562000afd5762000afc62000587565b5b62000b098254620008cf565b62000b1682828562000a3b565b600060209050601f83116001811462000b4e576000841562000b39578287015190505b62000b45858262000ab8565b86555062000bb5565b601f19841662000b5e8662000904565b60005b8281101562000b885784890151825560018201915060208501945060208101905062000b61565b8683101562000ba8578489015162000ba4601f89168262000a98565b8355505b6001600288020188555050505b505050505050565b60805160a05160c05160e0516101005161012051613b5162000c2260003960008181610d6d01528181610d950152610dbe01526000610e9c01526000610e5801526000610e7901526000610e1c015260008181610916015261096a0152613b516000f3fe6080604052600436106101815760003560e01c8063715018a6116100d1578063a22cb4651161008a578063c87b56dd11610064578063c87b56dd14610575578063e985e9c5146105b2578063ee89dab4146105ef578063f2fde38b1461061a57610181565b8063a22cb465146104e6578063a36f573b1461050f578063b88d4fde1461054c57610181565b8063715018a6146103f35780637a5caab31461040a5780637abd25d11461043557806384b50422146104535780638da5cb5b1461049057806395d89b41146104bb57610181565b806323c42bb21161013e5780635dacf5f4116101185780635dacf5f4146103235780636352211e1461034e5780636e02007d1461038b57806370a08231146103b657610181565b806323c42bb2146102a65780633ccfd60b146102e357806342842e0e146102fa57610181565b806301ffc9a71461018657806306fdde03146101c3578063081812fc146101ee578063095ea7b31461022b5780631fe543e31461025457806323b872dd1461027d575b600080fd5b34801561019257600080fd5b506101ad60048036038101906101a89190612485565b610643565b6040516101ba91906124cd565b60405180910390f35b3480156101cf57600080fd5b506101d8610725565b6040516101e59190612578565b60405180910390f35b3480156101fa57600080fd5b50610215600480360381019061021091906125d0565b6107b7565b604051610222919061263e565b60405180910390f35b34801561023757600080fd5b50610252600480360381019061024d9190612685565b6107fd565b005b34801561026057600080fd5b5061027b6004803603810190610276919061280d565b610914565b005b34801561028957600080fd5b506102a4600480360381019061029f9190612869565b6109d4565b005b3480156102b257600080fd5b506102cd60048036038101906102c891906125d0565b610a34565b6040516102da9190612578565b60405180910390f35b3480156102ef57600080fd5b506102f8610ae4565b005b34801561030657600080fd5b50610321600480360381019061031c9190612869565b610b98565b005b34801561032f57600080fd5b50610338610bb8565b6040516103459190612967565b60405180910390f35b34801561035a57600080fd5b50610375600480360381019061037091906125d0565b610be3565b604051610382919061263e565b60405180910390f35b34801561039757600080fd5b506103a0610c94565b6040516103ad9190612991565b60405180910390f35b3480156103c257600080fd5b506103dd60048036038101906103d891906129ac565b610c9e565b6040516103ea9190612991565b60405180910390f35b3480156103ff57600080fd5b50610408610d55565b005b34801561041657600080fd5b5061041f610d69565b60405161042c9190612991565b60405180910390f35b61043d610d91565b60405161044a9190612991565b60405180910390f35b34801561045f57600080fd5b5061047a600480360381019061047591906125d0565b610faf565b6040516104879190612a50565b60405180910390f35b34801561049c57600080fd5b506104a561107b565b6040516104b2919061263e565b60405180910390f35b3480156104c757600080fd5b506104d06110a5565b6040516104dd9190612578565b60405180910390f35b3480156104f257600080fd5b5061050d60048036038101906105089190612a97565b611137565b005b34801561051b57600080fd5b50610536600480360381019061053191906125d0565b61114d565b604051610543919061263e565b60405180910390f35b34801561055857600080fd5b50610573600480360381019061056e9190612b8c565b611180565b005b34801561058157600080fd5b5061059c600480360381019061059791906125d0565b6111e2565b6040516105a99190612578565b60405180910390f35b3480156105be57600080fd5b506105d960048036038101906105d49190612c0f565b6112f4565b6040516105e691906124cd565b60405180910390f35b3480156105fb57600080fd5b50610604611388565b60405161061191906124cd565b60405180910390f35b34801561062657600080fd5b50610641600480360381019061063c91906129ac565b61139f565b005b60007f80ac58cd000000000000000000000000000000000000000000000000000000007bffffffffffffffffffffffffffffffffffffffffffffffffffffffff1916827bffffffffffffffffffffffffffffffffffffffffffffffffffffffff1916148061070e57507f5b5e139f000000000000000000000000000000000000000000000000000000007bffffffffffffffffffffffffffffffffffffffffffffffffffffffff1916827bffffffffffffffffffffffffffffffffffffffffffffffffffffffff1916145b8061071e575061071d82611422565b5b9050919050565b60606000805461073490612c7e565b80601f016020809104026020016040519081016040528092919081815260200182805461076090612c7e565b80156107ad5780601f10610782576101008083540402835291602001916107ad565b820191906000526020600020905b81548152906001019060200180831161079057829003601f168201915b5050505050905090565b60006107c28261148c565b6004600083815260200190815260200160002060009054906101000a900473ffffffffffffffffffffffffffffffffffffffff169050919050565b600061080882610be3565b90508073ffffffffffffffffffffffffffffffffffffffff168373ffffffffffffffffffffffffffffffffffffffff1603610878576040517f08c379a000000000000000000000000000000000000000000000000000000000815260040161086f90612d21565b60405180910390fd5b8073ffffffffffffffffffffffffffffffffffffffff166108976114d7565b73ffffffffffffffffffffffffffffffffffffffff1614806108c657506108c5816108c06114d7565b6112f4565b5b610905576040517f08c379a00000000000000000000000000000000000000000000000000000000081526004016108fc90612db3565b60405180910390fd5b61090f83836114df565b505050565b7f000000000000000000000000000000000000000000000000000000000000000073ffffffffffffffffffffffffffffffffffffffff163373ffffffffffffffffffffffffffffffffffffffff16146109c657337f00000000000000000000000000000000000000000000000000000000000000006040517f1cf993f40000000000000000000000000000000000000000000000000000000081526004016109bd929190612dd3565b60405180910390fd5b6109d08282611598565b5050565b6109e56109df6114d7565b82611732565b610a24576040517f08c379a0000000000000000000000000000000000000000000000000000000008152600401610a1b90612e6e565b60405180910390fd5b610a2f8383836117c7565b505050565b6060600a8281548110610a4a57610a49612e8e565b5b906000526020600020018054610a5f90612c7e565b80601f0160208091040260200160405190810160405280929190818152602001828054610a8b90612c7e565b8015610ad85780601f10610aad57610100808354040283529160200191610ad8565b820191906000526020600020905b815481529060010190602001808311610abb57829003601f168201915b50505050509050919050565b610aec611a2d565b600047905060003373ffffffffffffffffffffffffffffffffffffffff1682604051610b1790612eee565b60006040518083038185875af1925050503d8060008114610b54576040519150601f19603f3d011682016040523d82523d6000602084013e610b59565b606091505b5050905080610b94576040517feeb2f04700000000000000000000000000000000000000000000000000000000815260040160405180910390fd5b5050565b610bb383838360405180602001604052806000815250611180565b505050565b610bc06123f7565b6040518060600160405280600a8152602001601e81526020016064815250905090565b6000806002600084815260200190815260200160002060009054906101000a900473ffffffffffffffffffffffffffffffffffffffff169050600073ffffffffffffffffffffffffffffffffffffffff168173ffffffffffffffffffffffffffffffffffffffff1603610c8b576040517f08c379a0000000000000000000000000000000000000000000000000000000008152600401610c8290612f4f565b60405180910390fd5b80915050919050565b6000600954905090565b60008073ffffffffffffffffffffffffffffffffffffffff168273ffffffffffffffffffffffffffffffffffffffff1603610d0e576040517f08c379a0000000000000000000000000000000000000000000000000000000008152600401610d0590612fe1565b60405180910390fd5b600360008373ffffffffffffffffffffffffffffffffffffffff1673ffffffffffffffffffffffffffffffffffffffff168152602001908152602001600020549050919050565b610d5d611a2d565b610d676000611aab565b565b60007f0000000000000000000000000000000000000000000000000000000000000000905090565b60007f0000000000000000000000000000000000000000000000000000000000000000341015610e1a57347f00000000000000000000000000000000000000000000000000000000000000006040517ff6647eea000000000000000000000000000000000000000000000000000000008152600401610e11929190613001565b60405180910390fd5b7f000000000000000000000000000000000000000000000000000000000000000073ffffffffffffffffffffffffffffffffffffffff16635d3b1d307f00000000000000000000000000000000000000000000000000000000000000007f000000000000000000000000000000000000000000000000000000000000000060037f000000000000000000000000000000000000000000000000000000000000000060016040518663ffffffff1660e01b8152600401610edd9594939291906130a2565b6020604051808303816000875af1158015610efc573d6000803e3d6000fd5b505050506040513d601f19601f82011682018060405250810190610f20919061310a565b9050336008600083815260200190815260200160002060006101000a81548173ffffffffffffffffffffffffffffffffffffffff021916908373ffffffffffffffffffffffffffffffffffffffff160217905550807ff873236e6cc0ecc5be1a9a35c95ee5b8d1ac4cc7bfef0cc5060391d6cc98e26b33604051610fa4919061263e565b60405180910390a290565b600080600090506000610fc0610bb8565b905060005b600381101561104357828510158015610ff45750818160038110610fec57610feb612e8e565b5b602002015185105b156110165780600281111561100c5761100b6129d9565b5b9350505050611076565b81816003811061102957611028612e8e565b5b60200201519250808061103b90613166565b915050610fc5565b506040517f68d5321c00000000000000000000000000000000000000000000000000000000815260040160405180910390fd5b919050565b6000600760009054906101000a900473ffffffffffffffffffffffffffffffffffffffff16905090565b6060600180546110b490612c7e565b80601f01602080910402602001604051908101604052809291908181526020018280546110e090612c7e565b801561112d5780601f106111025761010080835404028352916020019161112d565b820191906000526020600020905b81548152906001019060200180831161111057829003601f168201915b5050505050905090565b6111496111426114d7565b8383611b71565b5050565b60086020528060005260406000206000915054906101000a900473ffffffffffffffffffffffffffffffffffffffff1681565b61119161118b6114d7565b83611732565b6111d0576040517f08c379a00000000000000000000000000000000000000000000000000000000081526004016111c790612e6e565b60405180910390fd5b6111dc84848484611cdd565b50505050565b60606111ed8261148c565b600060066000848152602001908152602001600020805461120d90612c7e565b80601f016020809104026020016040519081016040528092919081815260200182805461123990612c7e565b80156112865780601f1061125b57610100808354040283529160200191611286565b820191906000526020600020905b81548152906001019060200180831161126957829003601f168201915b505050505090506000611297611d39565b905060008151036112ac5781925050506112ef565b6000825111156112e15780826040516020016112c99291906131ea565b604051602081830303815290604052925050506112ef565b6112ea84611d50565b925050505b919050565b6000600560008473ffffffffffffffffffffffffffffffffffffffff1673ffffffffffffffffffffffffffffffffffffffff16815260200190815260200160002060008373ffffffffffffffffffffffffffffffffffffffff1673ffffffffffffffffffffffffffffffffffffffff16815260200190815260200160002060009054906101000a900460ff16905092915050565b6000600b60009054906101000a900460ff16905090565b6113a7611a2d565b600073ffffffffffffffffffffffffffffffffffffffff168173ffffffffffffffffffffffffffffffffffffffff1603611416576040517f08c379a000000000000000000000000000000000000000000000000000000000815260040161140d90613280565b60405180910390fd5b61141f81611aab565b50565b60007f01ffc9a7000000000000000000000000000000000000000000000000000000007bffffffffffffffffffffffffffffffffffffffffffffffffffffffff1916827bffffffffffffffffffffffffffffffffffffffffffffffffffffffff1916149050919050565b61149581611db8565b6114d4576040517f08c379a00000000000000000000000000000000000000000000000000000000081526004016114cb90612f4f565b60405180910390fd5b50565b600033905090565b816004600083815260200190815260200160002060006101000a81548173ffffffffffffffffffffffffffffffffffffffff021916908373ffffffffffffffffffffffffffffffffffffffff160217905550808273ffffffffffffffffffffffffffffffffffffffff1661155283610be3565b73ffffffffffffffffffffffffffffffffffffffff167f8c5be1e5ebec7d5bd14f71427d1e84f3dd0314c0f7b2291e5b200ac8c7c3b92560405160405180910390a45050565b60006008600084815260200190815260200160002060009054906101000a900473ffffffffffffffffffffffffffffffffffffffff16905060006064836000815181106115e8576115e7612e8e565b5b60200260200101516115fa91906132cf565b90506000600954905060016009546116129190613300565b600981905550600061162383610faf565b905061162f8483611e24565b6116f182600a836002811115611648576116476129d9565b5b8154811061165957611658612e8e565b5b90600052602060002001805461166e90612c7e565b80601f016020809104026020016040519081016040528092919081815260200182805461169a90612c7e565b80156116e75780601f106116bc576101008083540402835291602001916116e7565b820191906000526020600020905b8154815290600101906020018083116116ca57829003601f168201915b5050505050611e42565b7f8a269f26b688e110e9cbd887d163dab35cae678fa353a0292de532c0cac1ecdc8185604051611722929190613334565b60405180910390a1505050505050565b60008061173e83610be3565b90508073ffffffffffffffffffffffffffffffffffffffff168473ffffffffffffffffffffffffffffffffffffffff161480611780575061177f81856112f4565b5b806117be57508373ffffffffffffffffffffffffffffffffffffffff166117a6846107b7565b73ffffffffffffffffffffffffffffffffffffffff16145b91505092915050565b8273ffffffffffffffffffffffffffffffffffffffff166117e782610be3565b73ffffffffffffffffffffffffffffffffffffffff161461183d576040517f08c379a0000000000000000000000000000000000000000000000000000000008152600401611834906133cf565b60405180910390fd5b600073ffffffffffffffffffffffffffffffffffffffff168273ffffffffffffffffffffffffffffffffffffffff16036118ac576040517f08c379a00000000000000000000000000000000000000000000000000000000081526004016118a390613461565b60405180910390fd5b6118b7838383611eaf565b6118c26000826114df565b6001600360008573ffffffffffffffffffffffffffffffffffffffff1673ffffffffffffffffffffffffffffffffffffffff16815260200190815260200160002060008282546119129190613481565b925050819055506001600360008473ffffffffffffffffffffffffffffffffffffffff1673ffffffffffffffffffffffffffffffffffffffff16815260200190815260200160002060008282546119699190613300565b92505081905550816002600083815260200190815260200160002060006101000a81548173ffffffffffffffffffffffffffffffffffffffff021916908373ffffffffffffffffffffffffffffffffffffffff160217905550808273ffffffffffffffffffffffffffffffffffffffff168473ffffffffffffffffffffffffffffffffffffffff167fddf252ad1be2c89b69c2b068fc378daa952ba7f163c4a11628f55a4df523b3ef60405160405180910390a4611a28838383611eb4565b505050565b611a356114d7565b73ffffffffffffffffffffffffffffffffffffffff16611a5361107b565b73ffffffffffffffffffffffffffffffffffffffff1614611aa9576040517f08c379a0000000000000000000000000000000000000000000000000000000008152600401611aa090613501565b60405180910390fd5b565b6000600760009054906101000a900473ffffffffffffffffffffffffffffffffffffffff16905081600760006101000a81548173ffffffffffffffffffffffffffffffffffffffff021916908373ffffffffffffffffffffffffffffffffffffffff1602179055508173ffffffffffffffffffffffffffffffffffffffff168173ffffffffffffffffffffffffffffffffffffffff167f8be0079c531659141344cd1fd0a4f28419497f9722a3daafe3b4186f6b6457e060405160405180910390a35050565b8173ffffffffffffffffffffffffffffffffffffffff168373ffffffffffffffffffffffffffffffffffffffff1603611bdf576040517f08c379a0000000000000000000000000000000000000000000000000000000008152600401611bd69061356d565b60405180910390fd5b80600560008573ffffffffffffffffffffffffffffffffffffffff1673ffffffffffffffffffffffffffffffffffffffff16815260200190815260200160002060008473ffffffffffffffffffffffffffffffffffffffff1673ffffffffffffffffffffffffffffffffffffffff16815260200190815260200160002060006101000a81548160ff0219169083151502179055508173ffffffffffffffffffffffffffffffffffffffff168373ffffffffffffffffffffffffffffffffffffffff167f17307eab39ab6107e8899845ad3d59bd9653f200f220920489ca2b5937696c3183604051611cd091906124cd565b60405180910390a3505050565b611ce88484846117c7565b611cf484848484611eb9565b611d33576040517f08c379a0000000000000000000000000000000000000000000000000000000008152600401611d2a906135ff565b60405180910390fd5b50505050565b606060405180602001604052806000815250905090565b6060611d5b8261148c565b6000611d65611d39565b90506000815111611d855760405180602001604052806000815250611db0565b80611d8f84612040565b604051602001611da09291906131ea565b6040516020818303038152906040525b915050919050565b60008073ffffffffffffffffffffffffffffffffffffffff166002600084815260200190815260200160002060009054906101000a900473ffffffffffffffffffffffffffffffffffffffff1673ffffffffffffffffffffffffffffffffffffffff1614159050919050565b611e3e8282604051806020016040528060008152506121a0565b5050565b611e4b82611db8565b611e8a576040517f08c379a0000000000000000000000000000000000000000000000000000000008152600401611e8190613691565b60405180910390fd5b80600660008481526020019081526020016000209081611eaa919061385d565b505050565b505050565b505050565b6000611eda8473ffffffffffffffffffffffffffffffffffffffff166121fb565b15612033578373ffffffffffffffffffffffffffffffffffffffff1663150b7a02611f036114d7565b8786866040518563ffffffff1660e01b8152600401611f259493929190613984565b6020604051808303816000875af1925050508015611f6157506040513d601f19601f82011682018060405250810190611f5e91906139e5565b60015b611fe3573d8060008114611f91576040519150601f19603f3d011682016040523d82523d6000602084013e611f96565b606091505b506000815103611fdb576040517f08c379a0000000000000000000000000000000000000000000000000000000008152600401611fd2906135ff565b60405180910390fd5b805181602001fd5b63150b7a0260e01b7bffffffffffffffffffffffffffffffffffffffffffffffffffffffff1916817bffffffffffffffffffffffffffffffffffffffffffffffffffffffff191614915050612038565b600190505b949350505050565b606060008203612087576040518060400160405280600181526020017f3000000000000000000000000000000000000000000000000000000000000000815250905061219b565b600082905060005b600082146120b95780806120a290613166565b915050600a826120b29190613a12565b915061208f565b60008167ffffffffffffffff8111156120d5576120d46126ca565b5b6040519080825280601f01601f1916602001820160405280156121075781602001600182028036833780820191505090505b5090505b60008514612194576001826121209190613481565b9150600a8561212f91906132cf565b603061213b9190613300565b60f81b81838151811061215157612150612e8e565b5b60200101907effffffffffffffffffffffffffffffffffffffffffffffffffffffffffffff1916908160001a905350600a8561218d9190613a12565b945061210b565b8093505050505b919050565b6121aa838361221e565b6121b76000848484611eb9565b6121f6576040517f08c379a00000000000000000000000000000000000000000000000000000000081526004016121ed906135ff565b60405180910390fd5b505050565b6000808273ffffffffffffffffffffffffffffffffffffffff163b119050919050565b600073ffffffffffffffffffffffffffffffffffffffff168273ffffffffffffffffffffffffffffffffffffffff160361228d576040517f08c379a000000000000000000000000000000000000000000000000000000000815260040161228490613a8f565b60405180910390fd5b61229681611db8565b156122d6576040517f08c379a00000000000000000000000000000000000000000000000000000000081526004016122cd90613afb565b60405180910390fd5b6122e260008383611eaf565b6001600360008473ffffffffffffffffffffffffffffffffffffffff1673ffffffffffffffffffffffffffffffffffffffff16815260200190815260200160002060008282546123329190613300565b92505081905550816002600083815260200190815260200160002060006101000a81548173ffffffffffffffffffffffffffffffffffffffff021916908373ffffffffffffffffffffffffffffffffffffffff160217905550808273ffffffffffffffffffffffffffffffffffffffff16600073ffffffffffffffffffffffffffffffffffffffff167fddf252ad1be2c89b69c2b068fc378daa952ba7f163c4a11628f55a4df523b3ef60405160405180910390a46123f360008383611eb4565b5050565b6040518060600160405280600390602082028036833780820191505090505090565b6000604051905090565b600080fd5b600080fd5b60007fffffffff0000000000000000000000000000000000000000000000000000000082169050919050565b6124628161242d565b811461246d57600080fd5b50565b60008135905061247f81612459565b92915050565b60006020828403121561249b5761249a612423565b5b60006124a984828501612470565b91505092915050565b60008115159050919050565b6124c7816124b2565b82525050565b60006020820190506124e260008301846124be565b92915050565b600081519050919050565b600082825260208201905092915050565b60005b83811015612522578082015181840152602081019050612507565b60008484015250505050565b6000601f19601f8301169050919050565b600061254a826124e8565b61255481856124f3565b9350612564818560208601612504565b61256d8161252e565b840191505092915050565b60006020820190508181036000830152612592818461253f565b905092915050565b6000819050919050565b6125ad8161259a565b81146125b857600080fd5b50565b6000813590506125ca816125a4565b92915050565b6000602082840312156125e6576125e5612423565b5b60006125f4848285016125bb565b91505092915050565b600073ffffffffffffffffffffffffffffffffffffffff82169050919050565b6000612628826125fd565b9050919050565b6126388161261d565b82525050565b6000602082019050612653600083018461262f565b92915050565b6126628161261d565b811461266d57600080fd5b50565b60008135905061267f81612659565b92915050565b6000806040838503121561269c5761269b612423565b5b60006126aa85828601612670565b92505060206126bb858286016125bb565b9150509250929050565b600080fd5b7f4e487b7100000000000000000000000000000000000000000000000000000000600052604160045260246000fd5b6127028261252e565b810181811067ffffffffffffffff82111715612721576127206126ca565b5b80604052505050565b6000612734612419565b905061274082826126f9565b919050565b600067ffffffffffffffff8211156127605761275f6126ca565b5b602082029050602081019050919050565b600080fd5b600061278961278484612745565b61272a565b905080838252602082019050602084028301858111156127ac576127ab612771565b5b835b818110156127d557806127c188826125bb565b8452602084019350506020810190506127ae565b5050509392505050565b600082601f8301126127f4576127f36126c5565b5b8135612804848260208601612776565b91505092915050565b6000806040838503121561282457612823612423565b5b6000612832858286016125bb565b925050602083013567ffffffffffffffff81111561285357612852612428565b5b61285f858286016127df565b9150509250929050565b60008060006060848603121561288257612881612423565b5b600061289086828701612670565b93505060206128a186828701612670565b92505060406128b2868287016125bb565b9150509250925092565b600060039050919050565b600081905092915050565b6000819050919050565b6128e58161259a565b82525050565b60006128f783836128dc565b60208301905092915050565b6000602082019050919050565b612919816128bc565b61292381846128c7565b925061292e826128d2565b8060005b8381101561295f57815161294687826128eb565b965061295183612903565b925050600181019050612932565b505050505050565b600060608201905061297c6000830184612910565b92915050565b61298b8161259a565b82525050565b60006020820190506129a66000830184612982565b92915050565b6000602082840312156129c2576129c1612423565b5b60006129d084828501612670565b91505092915050565b7f4e487b7100000000000000000000000000000000000000000000000000000000600052602160045260246000fd5b60038110612a1957612a186129d9565b5b50565b6000819050612a2a82612a08565b919050565b6000612a3a82612a1c565b9050919050565b612a4a81612a2f565b82525050565b6000602082019050612a656000830184612a41565b92915050565b612a74816124b2565b8114612a7f57600080fd5b50565b600081359050612a9181612a6b565b92915050565b60008060408385031215612aae57612aad612423565b5b6000612abc85828601612670565b9250506020612acd85828601612a82565b9150509250929050565b600080fd5b600067ffffffffffffffff821115612af757612af66126ca565b5b612b008261252e565b9050602081019050919050565b82818337600083830152505050565b6000612b2f612b2a84612adc565b61272a565b905082815260208101848484011115612b4b57612b4a612ad7565b5b612b56848285612b0d565b509392505050565b600082601f830112612b7357612b726126c5565b5b8135612b83848260208601612b1c565b91505092915050565b60008060008060808587031215612ba657612ba5612423565b5b6000612bb487828801612670565b9450506020612bc587828801612670565b9350506040612bd6878288016125bb565b925050606085013567ffffffffffffffff811115612bf757612bf6612428565b5b612c0387828801612b5e565b91505092959194509250565b60008060408385031215612c2657612c25612423565b5b6000612c3485828601612670565b9250506020612c4585828601612670565b9150509250929050565b7f4e487b7100000000000000000000000000000000000000000000000000000000600052602260045260246000fd5b60006002820490506001821680612c9657607f821691505b602082108103612ca957612ca8612c4f565b5b50919050565b7f4552433732313a20617070726f76616c20746f2063757272656e74206f776e6560008201527f7200000000000000000000000000000000000000000000000000000000000000602082015250565b6000612d0b6021836124f3565b9150612d1682612caf565b604082019050919050565b60006020820190508181036000830152612d3a81612cfe565b9050919050565b7f4552433732313a20617070726f76652063616c6c6572206973206e6f7420746f60008201527f6b656e206f776e6572206e6f7220617070726f76656420666f7220616c6c0000602082015250565b6000612d9d603e836124f3565b9150612da882612d41565b604082019050919050565b60006020820190508181036000830152612dcc81612d90565b9050919050565b6000604082019050612de8600083018561262f565b612df5602083018461262f565b9392505050565b7f4552433732313a2063616c6c6572206973206e6f7420746f6b656e206f776e6560008201527f72206e6f7220617070726f766564000000000000000000000000000000000000602082015250565b6000612e58602e836124f3565b9150612e6382612dfc565b604082019050919050565b60006020820190508181036000830152612e8781612e4b565b9050919050565b7f4e487b7100000000000000000000000000000000000000000000000000000000600052603260045260246000fd5b600081905092915050565b50565b6000612ed8600083612ebd565b9150612ee382612ec8565b600082019050919050565b6000612ef982612ecb565b9150819050919050565b7f4552433732313a20696e76616c696420746f6b656e2049440000000000000000600082015250565b6000612f396018836124f3565b9150612f4482612f03565b602082019050919050565b60006020820190508181036000830152612f6881612f2c565b9050919050565b7f4552433732313a2061646472657373207a65726f206973206e6f74206120766160008201527f6c6964206f776e65720000000000000000000000000000000000000000000000602082015250565b6000612fcb6029836124f3565b9150612fd682612f6f565b604082019050919050565b60006020820190508181036000830152612ffa81612fbe565b9050919050565b60006040820190506130166000830185612982565b6130236020830184612982565b9392505050565b6000819050919050565b61303d8161302a565b82525050565b600067ffffffffffffffff82169050919050565b61306081613043565b82525050565b600061ffff82169050919050565b61307d81613066565b82525050565b600063ffffffff82169050919050565b61309c81613083565b82525050565b600060a0820190506130b76000830188613034565b6130c46020830187613057565b6130d16040830186613074565b6130de6060830185613093565b6130eb6080830184613093565b9695505050505050565b600081519050613104816125a4565b92915050565b6000602082840312156131205761311f612423565b5b600061312e848285016130f5565b91505092915050565b7f4e487b7100000000000000000000000000000000000000000000000000000000600052601160045260246000fd5b60006131718261259a565b91507fffffffffffffffffffffffffffffffffffffffffffffffffffffffffffffffff82036131a3576131a2613137565b5b600182019050919050565b600081905092915050565b60006131c4826124e8565b6131ce81856131ae565b93506131de818560208601612504565b80840191505092915050565b60006131f682856131b9565b915061320282846131b9565b91508190509392505050565b7f4f776e61626c653a206e6577206f776e657220697320746865207a65726f206160008201527f6464726573730000000000000000000000000000000000000000000000000000602082015250565b600061326a6026836124f3565b91506132758261320e565b604082019050919050565b600060208201905081810360008301526132998161325d565b9050919050565b7f4e487b7100000000000000000000000000000000000000000000000000000000600052601260045260246000fd5b60006132da8261259a565b91506132e58361259a565b9250826132f5576132f46132a0565b5b828206905092915050565b600061330b8261259a565b91506133168361259a565b925082820190508082111561332e5761332d613137565b5b92915050565b60006040820190506133496000830185612a41565b613356602083018461262f565b9392505050565b7f4552433732313a207472616e736665722066726f6d20696e636f72726563742060008201527f6f776e6572000000000000000000000000000000000000000000000000000000602082015250565b60006133b96025836124f3565b91506133c48261335d565b604082019050919050565b600060208201905081810360008301526133e8816133ac565b9050919050565b7f4552433732313a207472616e7366657220746f20746865207a65726f2061646460008201527f7265737300000000000000000000000000000000000000000000000000000000602082015250565b600061344b6024836124f3565b9150613456826133ef565b604082019050919050565b6000602082019050818103600083015261347a8161343e565b9050919050565b600061348c8261259a565b91506134978361259a565b92508282039050818111156134af576134ae613137565b5b92915050565b7f4f776e61626c653a2063616c6c6572206973206e6f7420746865206f776e6572600082015250565b60006134eb6020836124f3565b91506134f6826134b5565b602082019050919050565b6000602082019050818103600083015261351a816134de565b9050919050565b7f4552433732313a20617070726f766520746f2063616c6c657200000000000000600082015250565b60006135576019836124f3565b915061356282613521565b602082019050919050565b600060208201905081810360008301526135868161354a565b9050919050565b7f4552433732313a207472616e7366657220746f206e6f6e20455243373231526560008201527f63656976657220696d706c656d656e7465720000000000000000000000000000602082015250565b60006135e96032836124f3565b91506135f48261358d565b604082019050919050565b60006020820190508181036000830152613618816135dc565b9050919050565b7f45524337323155524953746f726167653a2055524920736574206f66206e6f6e60008201527f6578697374656e7420746f6b656e000000000000000000000000000000000000602082015250565b600061367b602e836124f3565b91506136868261361f565b604082019050919050565b600060208201905081810360008301526136aa8161366e565b9050919050565b60008190508160005260206000209050919050565b60006020601f8301049050919050565b600082821b905092915050565b6000600883026137137fffffffffffffffffffffffffffffffffffffffffffffffffffffffffffffffff826136d6565b61371d86836136d6565b95508019841693508086168417925050509392505050565b6000819050919050565b600061375a6137556137508461259a565b613735565b61259a565b9050919050565b6000819050919050565b6137748361373f565b61378861378082613761565b8484546136e3565b825550505050565b600090565b61379d613790565b6137a881848461376b565b505050565b5b818110156137cc576137c1600082613795565b6001810190506137ae565b5050565b601f821115613811576137e2816136b1565b6137eb846136c6565b810160208510156137fa578190505b61380e613806856136c6565b8301826137ad565b50505b505050565b600082821c905092915050565b600061383460001984600802613816565b1980831691505092915050565b600061384d8383613823565b9150826002028217905092915050565b613866826124e8565b67ffffffffffffffff81111561387f5761387e6126ca565b5b6138898254612c7e565b6138948282856137d0565b600060209050601f8311600181146138c757600084156138b5578287015190505b6138bf8582613841565b865550613927565b601f1984166138d5866136b1565b60005b828110156138fd578489015182556001820191506020850194506020810190506138d8565b8683101561391a5784890151613916601f891682613823565b8355505b6001600288020188555050505b505050505050565b600081519050919050565b600082825260208201905092915050565b60006139568261392f565b613960818561393a565b9350613970818560208601612504565b6139798161252e565b840191505092915050565b6000608082019050613999600083018761262f565b6139a6602083018661262f565b6139b36040830185612982565b81810360608301526139c5818461394b565b905095945050505050565b6000815190506139df81612459565b92915050565b6000602082840312156139fb576139fa612423565b5b6000613a09848285016139d0565b91505092915050565b6000613a1d8261259a565b9150613a288361259a565b925082613a3857613a376132a0565b5b828204905092915050565b7f4552433732313a206d696e7420746f20746865207a65726f2061646472657373600082015250565b6000613a796020836124f3565b9150613a8482613a43565b602082019050919050565b60006020820190508181036000830152613aa881613a6c565b9050919050565b7f4552433732313a20746f6b656e20616c7265616479206d696e74656400000000600082015250565b6000613ae5601c836124f3565b9150613af082613aaf565b602082019050919050565b60006020820190508181036000830152613b1481613ad8565b905091905056fea264697066735822122079f301b58c7dd159e3f0dc1524f6499048a874a7a67c763b5b8b0c18d3ed090164736f6c63430008110033",
  "devdoc": {
    "kind": "dev",
    "methods": {
      "approve(address,uint256)": {
        "details": "See {IERC721-approve}."
      },
      "balanceOf(address)": {
        "details": "See {IERC721-balanceOf}."
      },
      "getApproved(uint256)": {
        "details": "See {IERC721-getApproved}."
      },
      "isApprovedForAll(address,address)": {
        "details": "See {IERC721-isApprovedForAll}."
      },
      "name()": {
        "details": "See {IERC721Metadata-name}."
      },
      "owner()": {
        "details": "Returns the address of the current owner."
      },
      "ownerOf(uint256)": {
        "details": "See {IERC721-ownerOf}."
      },
      "renounceOwnership()": {
        "details": "Leaves the contract without owner. It will not be possible to call `onlyOwner` functions anymore. Can only be called by the current owner. NOTE: Renouncing ownership will leave the contract without an owner, thereby removing any functionality that is only available to the owner."
      },
      "safeTransferFrom(address,address,uint256)": {
        "details": "See {IERC721-safeTransferFrom}."
      },
      "safeTransferFrom(address,address,uint256,bytes)": {
        "details": "See {IERC721-safeTransferFrom}."
      },
      "setApprovalForAll(address,bool)": {
        "details": "See {IERC721-setApprovalForAll}."
      },
      "supportsInterface(bytes4)": {
        "details": "See {IERC165-supportsInterface}."
      },
      "symbol()": {
        "details": "See {IERC721Metadata-symbol}."
      },
      "tokenURI(uint256)": {
        "details": "See {IERC721Metadata-tokenURI}."
      },
      "transferFrom(address,address,uint256)": {
        "details": "See {IERC721-transferFrom}."
      },
      "transferOwnership(address)": {
        "details": "Transfers ownership of the contract to a new account (`newOwner`). Can only be called by the current owner."
      }
    },
    "version": 1
  },
  "userdoc": {
    "kind": "user",
    "methods": {},
    "version": 1
  },
  "storageLayout": {
    "storage": [
      {
        "astId": 1313,
        "contract": "contracts/AnimalCultistNFT.sol:AnimalCultistNFT",
        "label": "_name",
        "offset": 0,
        "slot": "0",
        "type": "t_string_storage"
      },
      {
        "astId": 1315,
        "contract": "contracts/AnimalCultistNFT.sol:AnimalCultistNFT",
        "label": "_symbol",
        "offset": 0,
        "slot": "1",
        "type": "t_string_storage"
      },
      {
        "astId": 1319,
        "contract": "contracts/AnimalCultistNFT.sol:AnimalCultistNFT",
        "label": "_owners",
        "offset": 0,
        "slot": "2",
        "type": "t_mapping(t_uint256,t_address)"
      },
      {
        "astId": 1323,
        "contract": "contracts/AnimalCultistNFT.sol:AnimalCultistNFT",
        "label": "_balances",
        "offset": 0,
        "slot": "3",
        "type": "t_mapping(t_address,t_uint256)"
      },
      {
        "astId": 1327,
        "contract": "contracts/AnimalCultistNFT.sol:AnimalCultistNFT",
        "label": "_tokenApprovals",
        "offset": 0,
        "slot": "4",
        "type": "t_mapping(t_uint256,t_address)"
      },
      {
        "astId": 1333,
        "contract": "contracts/AnimalCultistNFT.sol:AnimalCultistNFT",
        "label": "_operatorApprovals",
        "offset": 0,
        "slot": "5",
        "type": "t_mapping(t_address,t_mapping(t_address,t_bool))"
      },
      {
        "astId": 2301,
        "contract": "contracts/AnimalCultistNFT.sol:AnimalCultistNFT",
        "label": "_tokenURIs",
        "offset": 0,
        "slot": "6",
        "type": "t_mapping(t_uint256,t_string_storage)"
      },
      {
        "astId": 1142,
        "contract": "contracts/AnimalCultistNFT.sol:AnimalCultistNFT",
        "label": "_owner",
        "offset": 0,
        "slot": "7",
        "type": "t_address"
      },
      {
        "astId": 3068,
        "contract": "contracts/AnimalCultistNFT.sol:AnimalCultistNFT",
        "label": "s_requestIdToSender",
        "offset": 0,
        "slot": "8",
        "type": "t_mapping(t_uint256,t_address)"
      },
      {
        "astId": 3072,
        "contract": "contracts/AnimalCultistNFT.sol:AnimalCultistNFT",
        "label": "s_tokenCounter",
        "offset": 0,
        "slot": "9",
        "type": "t_uint256"
      },
      {
        "astId": 3078,
        "contract": "contracts/AnimalCultistNFT.sol:AnimalCultistNFT",
        "label": "s_animalCultistTokenUris",
        "offset": 0,
        "slot": "10",
        "type": "t_array(t_string_storage)dyn_storage"
      },
      {
        "astId": 3080,
        "contract": "contracts/AnimalCultistNFT.sol:AnimalCultistNFT",
        "label": "s_initialized",
        "offset": 0,
        "slot": "11",
        "type": "t_bool"
      }
    ],
    "types": {
      "t_address": {
        "encoding": "inplace",
        "label": "address",
        "numberOfBytes": "20"
      },
      "t_array(t_string_storage)dyn_storage": {
        "base": "t_string_storage",
        "encoding": "dynamic_array",
        "label": "string[]",
        "numberOfBytes": "32"
      },
      "t_bool": {
        "encoding": "inplace",
        "label": "bool",
        "numberOfBytes": "1"
      },
      "t_mapping(t_address,t_bool)": {
        "encoding": "mapping",
        "key": "t_address",
        "label": "mapping(address => bool)",
        "numberOfBytes": "32",
        "value": "t_bool"
      },
      "t_mapping(t_address,t_mapping(t_address,t_bool))": {
        "encoding": "mapping",
        "key": "t_address",
        "label": "mapping(address => mapping(address => bool))",
        "numberOfBytes": "32",
        "value": "t_mapping(t_address,t_bool)"
      },
      "t_mapping(t_address,t_uint256)": {
        "encoding": "mapping",
        "key": "t_address",
        "label": "mapping(address => uint256)",
        "numberOfBytes": "32",
        "value": "t_uint256"
      },
      "t_mapping(t_uint256,t_address)": {
        "encoding": "mapping",
        "key": "t_uint256",
        "label": "mapping(uint256 => address)",
        "numberOfBytes": "32",
        "value": "t_address"
      },
      "t_mapping(t_uint256,t_string_storage)": {
        "encoding": "mapping",
        "key": "t_uint256",
        "label": "mapping(uint256 => string)",
        "numberOfBytes": "32",
        "value": "t_string_storage"
      },
      "t_string_storage": {
        "encoding": "bytes",
        "label": "string",
        "numberOfBytes": "32"
      },
      "t_uint256": {
        "encoding": "inplace",
        "label": "uint256",
        "numberOfBytes": "32"
      }
    }
  }
}